:04000000EAEF22F011
:08000800046ED8CF05F0E0CF33
:1000100006F00001E9CF0CF0EACF07F0E1CF08F0DD
:10002000E2CF09F0D9CF0AF0DACF0BF0F3CF12F01C
:10003000F4CF13F0FACF14F0F5CF15F0F6CF16F099
:10004000F7CF17F000C00EF001C00FF002C010F0A3
:1000500003C011F09DA230EF00F09EB2D9EF01F085
:100060000EC000F00FC001F010C002F011C003F08C
:100070000CC0E9FF07C0EAFF078E08C0E1FF09C016
:10008000E2FF0AC0D9FF0BC0DAFF12C0F3FF13C0B2
:10009000F4FF14C0FAFF15C0F5FF16C0F6FF17C035
:1000A000F7FF045006C0E0FF05C0D8FF1000F76A54
:1000B000BE0FF66E000EF7220900F5501200280F51
:1000C00001060200F76AD40FF66E000EF72209004F
:1000D000F5501200416C61726D70756E6B740000AA
:1000E000F76AF00FF66E000EF7220900F5501200C5
:1000F00031204B32204B3300F76A080FF66E010EA9
:10010000F7220900F550120031204B32204B340009
:10011000F76A200FF66E010EF7220900F550120063
:1001200031204B33204B3400F76A380FF66E010E46
:10013000F7220900F550120032204B33204B3400D7
:10014000F76A500FF66E010EF7220900F550120003
:1001500031204B32204B33204B340000F76A6C0FB8
:10016000F66E010EF7220900F5501200506173730C
:10017000776F72740000F76A860FF66E010EF72231
:100180000900F55012007A7520686F636800F76AFD
:100190009E0FF66E010EF7220900F550120042473D
:1001A000562F5556563A2057617274756E67000087
:1001B000F76AC00FF66E010EF7220900F550120023
:1001C000766F72676573636872696562656E000059
:1001D000F76AE00FF66E010EF7220900F5501200E3
:1001E00052412D47415320476D624800F76AFC0F8A
:1001F000F66E010EF7220900F55012003037313546
:10020000312F3933303434300000F76A1A0FF66E6C
:10021000020EF7220900F5501200576572746570DE
:10022000616172200000F76A360FF66E020EF72247
:100230000900F550120048616C74656E3A204E65F5
:10024000696E0000F76A540FF66E020EF72209007D
:10025000F550120048616C74656E3A204A610000E6
:10026000F76A700FF66E020EF7220900F5501200C1
:1002700045696E7374656C6C756E67656E00F76AC0
:100280008E0FF66E020EF7220900F55012004B6F2A
:100290006E66696775726174696F6E00F76AAC0F9C
:1002A000F66E020EF7220900F550120046726569DB
:1002B000676162650000F76AC60FF66E020EF722EC
:1002C0000900F550120045696E6865697400F76AA7
:1002D000DE0FF66E020EF7220900F5501200556E81
:1002E0007465726772656E7A6500F76AFA0FF66E6A
:1002F000020EF7220900F55012004F626572677214
:10030000656E7A650000F76A160FF66E030EF72227
:100310000900F5501200416C61726D726963687476
:10032000756E6700F76A340FF66E030EF722090048
:10033000F55012007374656967656E640000F76AB2
:100340004E0FF66E030EF7220900F550120066619B
:100350006C6C656E6400F76A660FF66E030EF7222A
:100360000900F550120041757377657274756E67F8
:100370000000F76A820FF66E030EF7220900F550AF
:1003800012004B616C7473746172747A65697400E5
:10039000F76AA00FF66E030EF7220900F55012005F
:1003A00057617274756E6773696E74657276616C8D
:1003B0000000545201E05406862B865119080AE1C8
:1003C000872B866B4B50070801E34B2A4C500208E1
:1003D00001E34C2A87513C0805E1882B876B8B533E
:1003E00001E08B0788513C0803E1892B876B886B00
:1003F000895118083BE18D518E1132E08D51D8B4EE
:100400008E078D078EC076F1F250006EF29E050EBB
:10041000A96E76C1A8FFA69CA69EA6840F01550EC4
:10042000A76EAA0EA76EA682A6B2FED7A69400500B
:10043000F2128DC076F1F2CF00F0F29E060EA96E98
:100440008DC0A8FFA69CA69EA684550EA76EAA0ED8
:10045000A76EA682A6B2FED7A6940050F2120001A3
:100460008D518E1102E1010E8C6F896B9E9230EFDF
:1004700000F0CD6AB16ABD6AC66AAB6A3F0E926E81
:100480008A6A936A8C6A956A040E8D6E030E966E64
:10049000A16A020E9D16480E0609CA6EF90ECB6EB1
:1004A0009D82C00EF21232EF23F0010EEA6E5A0E58
:1004B000E96EEF500EE0010E016E006A002EFED7CD
:1004C000012EFBD74A0E006E002EFED700D0EF2E75
:1004D000F2D7120001015D510F0B006EF00E821475
:1004E0000010826E00D0828A00D00000829A000143
:1004F0001200829800D001015AA182985AB18288D4
:1005000000D0829C00D0829A5B395C6F0F0E5C1722
:100510005CC15DF10001DEDF01015B510F0B5C6F1F
:100520005D6F0001D7DF1200000E946E8298829CEE
:10053000829A0F0E01015A6F0001B7DF010E01010F
:10054000556F555103080CE3030E5D6F0001C2DFC8
:10055000050E01015A6F0001A8DF0101552BF1D7EB
:10056000020E5D6F0001B6DF0101556B55510408A5
:100570000DE3036A555100019ADD0101566F5A6B74
:100580005B6F0001B6DF0101552BF0D7000134EF9E
:1005900023F0016603D0026602D007D0022A00C011
:1005A000EEFF012EFCD7022EFAD71200010EEA6EE2
:1005B0005A0EE96E200E006E026A050E016EE9DF2A
:1005C0000101595307E1430E5A6F480E5B6F340E19
:1005D0005C6F5AD1592D07D04E0E5A6F480E5B6F83
:1005E000330E5C6F51D15951020805E1430E5A6F29
:1005F0004F0E5B6F49D15951030807E1430E5A6F03
:100600004F0E5B6F320E5C6F3FD15951040805E10C
:100610004E0E5A6F4F0E5B6F37D15951050807E1E7
:100620004E0E5A6F4F0E5B6F320E5C6F2DD15951CB
:1006300006080BE1430E5A6F330E5B6F480E5C6F7A
:10064000360E5D6F4F0E5E6F1FD15951070809E1DD
:10065000430E5A6F320E5B6F480E5C6F320E5D6F49
:1006600013D15951080805E1480E5A6F430E5B6FCC
:100670000BD15951090806E1520E5A6F320E5B6FC9
:100680005C6F02D159510A0807E1520E5A6F320EBF
:100690005B6F330E5C6FF8D059510B080BE1520EB3
:1006A0005A6F310E5B6F330E5C6F340E5D6F610EEF
:1006B0005E6FEAD059510C080BE1520E5A6F340E9E
:1006C0005B6F300E5C6F340E5D6F610E5E6FDCD061
:1006D00059510D080BE1520E5A6F340E5B6F300EFC
:1006E0005C6F370E5D6F630E5E6FCED059510E0892
:1006F0000BE1430E5A6F340E5B6F480E5C6F380E81
:100700005D6F4F0E5E6FC0D059510F080BE1430E65
:100710005A6F390E5B6F480E5C6F320E5D6F300E94
:100720005E6FB2D05951100809E1430E5A6F330E73
:100730005B6F480E5C6F380E5D6FA6D05951110883
:100740000BE1430E5A6F340E5B6F480E5C6F310E37
:100750005D6F300E5E6F98D05951120809E1430E5B
:100760005A6F360E5B6F480E5C6F320E5D6F8CD029
:100770005951130809E1520E5A6F340E5B6F310E56
:100780005C6F300E5D6F80D0595114080BE1520E32
:100790005A6F610E5B6F750E5C6F630E5D6F680E56
:1007A0005E6F72D05951150809E1430E5A6F320E2F
:1007B0005B6F480E5C6F360E5D6F66D05951160840
:1007C0000BE1430E5A6F320E5B6F480E5C6F360EB4
:1007D0005D6F4F0E5E6F58D05951170809E1430EF7
:1007E0005A6F380E5B6F480E5C6F380E5D6F4CD0E1
:1007F000595118080BE1520E5A6F340E5B6F300ED0
:100800005C6F370E5D6F660E5E6F3ED059511908F2
:100810000BE1430E5A6F340E5B6F480E5C6F310E66
:100820005D6F300E5E6F30D059511A0807E1430EEC
:100830005A6F4C0E5B6F320E5C6F26D059511B08FD
:1008400009E1520E5A6F360E5B6F300E5C6F310E3F
:100850005D6F1AD059511C0805E1480E5A6F320ECF
:100860005B6F12D059511D080BE1430E5A6F350EC4
:100870005B6F480E5C6F310E5D6F320E5E6F04D0A1
:100880004F0E5A6F320E5B6F5851050DF350036ACD
:10089000100F016E010E032201C05FF103C060F171
:1008A00003C0EAFF01C0E9FF010EE26E5A0EE16EDD
:1008B000050E016EE6CFEEFF012EFCD700011200FF
:1008C000F2CF57F1F29E0E0EA96EA69CA69EA680B0
:1008D000A850010157BFF28E386B376FF2CF57F136
:1008E000F29E070EA96EA69CA69EA680A85057BF92
:1008F000F28E1A6F586B1AC159F1000157DEF2CF10
:1009000057F1F29E080EA96EA69CA69EA680A8503E
:10091000010157BFF28E1C6F1C51020802E11E6BD1
:1009200002D0020E1E6FF2CF57F1F29E0B0EA96E8F
:10093000A69CA69EA680A85057BFF28E586FF2CFF5
:1009400059F1F29E0C0EA96EA69CA69EA680A850F8
:1009500059BFF28E5A6F58C1A8F05AC1A7F0F2CF12
:1009600057F1F29E090EA96EA69CA69EA680A850DD
:1009700057BFF28E586FF2CF59F1F29E0A0EA96E50
:10098000A69CA69EA680A85059BFF28E5A6F58C149
:10099000B0F05AC1AFF0F2CF57F1F29E8B0EA96EB4
:1009A000A69CA69EA680A85057BFF28E3C6B3B6FBC
:1009B000F2CF57F1F29E0D0EA96EA69CA69EA680C0
:1009C000A85057BFF28E206F556B55510208D8A022
:1009D00090D0D8905535036A8F0FE96E000E032032
:1009E000EA6E5551060DF350670F596FF2CF5AF169
:1009F000F29E59C1A9FFA69CA69EA680A8505ABFE8
:100A0000F28E596F5551060DF350680F5B6FF2CFA0
:100A10005CF1F29E5BC1A9FFA69CA69EA680A85091
:100A20005CBFF28E5B6F59C1ECFFED525BC1EFFF13
:100A3000D8905535036A9B0FE96E000E0320EA6ECD
:100A40005551060DF350690F596FF2CF5AF1F29ECE
:100A500059C1A9FFA69CA69EA680A8505ABFF28E97
:100A6000596F5551060DF3506A0F5B6FF2CF5CF171
:100A7000F29E5BC1A9FFA69CA69EA680A8505CBF63
:100A8000F28E5B6F59C1ECFFED525BC1EFFF036A61
:100A90005551030FE96E010E0320EA6E5551060D04
:100AA000F3506B0F596FF2CF5AF1F29E59C1A9FF63
:100AB000A69CA69EA680A8505ABFF28EEF6E036A2F
:100AC0005551090FE96E010E0320EA6E5551060DCE
:100AD000F3506C0F596FF2CF5AF1F29E59C1A9FF32
:100AE000A69CA69EA680A8505ABFF28EEF6E552BEC
:100AF0006CD7566B565109085CE3D8905635036A9B
:100B0000B30FE96E000E0320EA6ED89056350F0F32
:100B1000596FF2CF5AF1F29E59C1A9FFA69CA69E29
:100B2000A680A8505ABFF28E596FD8905635100F34
:100B30005B6FF2CF5CF1F29E5BC1A9FFA69CA69E03
:100B4000A680A8505CBFF28E5B6F59C1ECFFED52DE
:100B50005BC1EFFFD8905635036ADB0FE96E000EDC
:100B60000320EA6ED8905635230F596FF2CF5AF111
:100B7000F29E59C1A9FFA69CA69EA680A8505ABF66
:100B8000F28E596FD8905635240F5B6FF2CF5CF11F
:100B9000F29E5BC1A9FFA69CA69EA680A8505CBF42
:100BA000F28E5B6F59C1ECFFED525BC1EFFF562B2C
:100BB000A1D7035301E00F81045301E00F830553D4
:100BC00001E00F85F2CF57F1F29E3E0EA96EA69C72
:100BD000A69EA680A85057BFF28E3A6B396FF2CF0F
:100BE00057F1F29E370EA96EA69CA69EA680A8502D
:100BF00057BFF28E1B6F010E586F1BC159F10001D8
:100C0000D5DCF2CF57F1F29E380EA96EA69CA69EB7
:100C1000A680A850010157BFF28E1D6F1D5102081A
:100C200002E11F6B02D0020E1F6FF2CF57F1F29E4E
:100C30003B0EA96EA69CA69EA680A85057BFF28E1A
:100C4000586FF2CF59F1F29E3C0EA96EA69CA69E5B
:100C5000A680A85059BFF28E5A6F58C1AAF05AC147
:100C6000A9F0F2CF57F1F29E390EA96EA69CA69E6E
:100C7000A680A85057BFF28E586FF2CF59F1F29E5E
:100C80003A0EA96EA69CA69EA680A85059BFF28EC9
:100C90005A6F58C1B2F05AC1B1F0F2CF57F1F29E7B
:100CA0008C0EA96EA69CA69EA680A85057BFF28E59
:100CB0003E6B3D6FF2CF57F1F29E3D0EA96EA69CA2
:100CC000A69EA680A85057BFF28E216F556B555136
:100CD0000208D8A090D0D8905535036A950FE96ED8
:100CE000000E0320EA6E5551060DF350790F596F2F
:100CF000F2CF5AF1F29E59C1A9FFA69CA69EA680EA
:100D0000A8505ABFF28E596F5551060DF3507A0F05
:100D10005B6FF2CF5CF1F29E5BC1A9FFA69CA69E21
:100D2000A680A8505CBFF28E5B6F59C1ECFFED52FC
:100D30005BC1EFFFD8905535036AA10FE96E000E35
:100D40000320EA6E5551060DF3507B0F596FF2CF19
:100D50005AF1F29E59C1A9FFA69CA69EA680A85052
:100D60005ABFF28E596F5551060DF3507C0F5B6FD1
:100D7000F2CF5CF1F29E5BC1A9FFA69CA69EA68065
:100D8000A8505CBFF28E5B6F59C1ECFFED525BC1A6
:100D9000EFFF036A5551060FE96E010E0320EA6E5C
:100DA0005551060DF3507D0F596FF2CF5AF1F29E57
:100DB00059C1A9FFA69CA69EA680A8505ABFF28E34
:100DC000EF6E036A55510C0FE96E010E0320EA6EB7
:100DD0005551060DF3507E0F596FF2CF5AF1F29E26
:100DE00059C1A9FFA69CA69EA680A8505ABFF28E04
:100DF000EF6E552B6CD7566B565109085CE3D890B3
:100E00005635036AC70FE96E000E0320EA6ED890CC
:100E100056353F0F596FF2CF5AF1F29E59C1A9FFD3
:100E2000A69CA69EA680A8505ABFF28E596FD89055
:100E30005635400F5B6FF2CF5CF1F29E5BC1A9FFAC
:100E4000A69CA69EA680A8505CBFF28E5B6F59C17F
:100E5000ECFFED525BC1EFFFD8905635036AEF0F00
:100E6000E96E000E0320EA6ED8905635530F596F85
:100E7000F2CF5AF1F29E59C1A9FFA69CA69EA68068
:100E8000A8505ABFF28E596FD8905635540F5B6FE9
:100E9000F2CF5CF1F29E5BC1A9FFA69CA69EA68044
:100EA000A8505CBFF28E5B6F59C1ECFFED525BC185
:100EB000EFFF562BA1D7F2CF57F1F29E040EA96E89
:100EC000A69CA69EA680A85057BFF28E00018B6FED
:100ED0008BC08AF0F2CF57F1F29E050EA96EA69C48
:100EE000A69EA680A850010157BFF28E586FF2CF80
:100EF00059F1F29E060EA96EA69CA69EA680A85049
:100F000059BFF28E5A6F58C18EF05AC18DF0F2CF90
:100F100057F1F29EA96AA69CA69EA680A85057BF2C
:100F2000F28E5D6EF2CF57F1F29E010EA96EA69C75
:100F3000A69EA680A85057BFF28E5E6EF2CF57F1E4
:100F4000F29E020EA96EA69CA69EA680A85057BF30
:100F5000F28E5F6EF2CF57F1F29E030EA96EA69C41
:100F6000A69EA680A85057BFF28E606E065301E081
:100F70000F87075301E00F89085301E00F8B000131
:100F800036EF23F0010159510C0A000103E0040A75
:100F90000FE016D001015A6B010E5B6F000179EC76
:100FA00002F0020E01015A6F000155EC02F010D060
:100FB00001015A6B100E5B6F000179EC02F008D052
:100FC000010E01015A6F59C15BF1000179EC02F089
:100FD00012000101706B716B010E726FDA6AD96ACF
:100FE000756F680E746F010EEA6E6C0EE96E75C156
:100FF000E2FF74C1E1FF72C173F1D890E550EE02D7
:10100000F3507023F4507123732FF7D770C1DEFFB4
:1010100071C170F1716BD8B0712B742BD8B4752B72
:10102000722B72510508DFE100011200D8B204D022
:10103000010EEA6E6C0EE96E006A016A026A036ACA
:1010400001016C6B6D6B6E6B6F6B6B516A1169118B
:1010500068112CE0200E706FD890643765376637C2
:1010600067376C376D376E376F376B516F5D08E1DF
:101070006A516E5D05E169516D5D02E168516C5D1B
:101080000FE368516C5F6951D8A0693D6D5F6A518B
:10109000D8A06A3D6E5F6B51D8A06B3D6F5FD88062
:1010A0000036013602360336702FD6D76CC1EFFFFB
:1010B0006DC1ECFF6EC1ECFF6FC1ECFF00011200CF
:1010C000415209E1405207E13F50010804E311E1B8
:1010D0003E508F080EE241520CE140520AE13F506F
:1010E0000608D8B0A9D0FF0A04E13E50D008D8B015
:1010F000A3D041520AE1405208E13F50070819E2EB
:10110000FF0A03E13E50980814E2472C01D003D0B7
:101110004B6A010E476E4B5004080AE286510B08D9
:1011200002E2000E01D0010E496E01014F8D000157
:101130006AD0415231E140522FE13F522DE13E5001
:10114000F9082AE38C51020818E0530E676E650E09
:10115000686E6E0E696E730E6A6E6F0E6B6E720E37
:101160006C6E640E776E650E786E660E796E650E27
:101170007A6E6B0E7B6E740E7C6E4750020803E035
:101180004B6A020E476E4B50040805E2010E496E91
:1011900001014F8D000137D0415235E1405233E11A
:1011A0003F50010830E303E13E502B082CE38C5103
:1011B000020819E0440E676E720E686E690E696E61
:1011C000660E6A6E740E6B6EEA6A770EE96E070E33
:1011D000016EF76A000EBBEC00F00A000900F5CFC3
:1011E000EEFF012EFBD74750030803E04B6A030EC6
:1011F000476E4B50040807E286510B0802E2000ECE
:1012000001D0010E496E415210E140520EE13F50B3
:1012100001080BE303E13E508F0807E3416A406A8F
:10122000010E3F6E900E3E6E06D0416A406A070E78
:101230003F6ED00E3E6E17D041520FE140520DE18D
:101240003F5001080AE303E13E50F30806E3416A18
:10125000406A010E3F6E900E3E6E476A496A010178
:101260004F9D509D00018C5305E1495202E18A9641
:1012700001D08A8601012053D8B49AD05F6B5F51A8
:10128000090866E3D8905F35036ADB0FE96E000E4C
:101290000320EA6EECCF03F0ED52EFCF01F04152A4
:1012A00009E1405207E103503F5C50E303E1015084
:1012B0003E5C4CE3010E5F25006ED8900036005076
:1012C000036ADB0FE96E000E0320EA6EECCF03F039
:1012D000ED52EFCF01F0415239E1405237E13F503A
:1012E000035C34E303E13E50015C30E3010E5F2513
:1012F000006ED89000360050036ADB0FE96E000ED6
:101300000320EA6EECCF61F1ED52EFCF60F1D8909F
:101310005F35036ADB0FE96E000E0320EA6EECCF47
:1013200003F0ED52EF50605D336F03506159346F3D
:10133000D8905F35036ADB0FE96E000E0320EA6E7A
:10134000ECCFACF0ED52EFCFABF002D05F2B97D7E4
:10135000010E5F25006ED89000360050036AB30F6F
:10136000E96E000E0320EA6EECCF61F1ED52EFCF93
:1013700060F1D8905F35036AB30FE96E000E032069
:10138000EA6EECCF03F0ED52EF50605D2F6F03502B
:101390006159306FD8905F35036AB30FE96E000E64
:1013A0000320EA6EECCFA8F0ED52EFCFA7F014D0F7
:1013B0000001A751AF5D01012F6F0001A851B05985
:1013C0000101306F060E346F400E336F010E0001C5
:1013D000AC6F900EAB6F01010001AB513E5C01019F
:1013E0005D6F0001AC513F5801015E6F636B626B32
:1013F0005EC161F15DC160F12FC100F030C101F04B
:10140000026A036A03C067F102C066F130C165F188
:101410002FC164F163C16BF162C16AF15EC169F110
:101420005DC168F103C06FF102C06EF130C16DF1B2
:101430002FC16CF10001CDDD03C05CF102C05BF196
:1014400001C05AF100C059F133C100F034C101F0BC
:10145000026A036A03C063F102C062F134C161F140
:1014600033C160F1D8925CC167F15BC166F15AC1CA
:1014700065F159C164F103C06BF102C06AF134C176
:1014800069F133C168F1D2DD03C05CF102C05BF1E8
:1014900001C05AF100C059F15AC12CF159C12BF1C8
:1014A000A75101012B270001A85101012C230001A4
:1014B000E3EF0CF0455209E1445207E143500108C3
:1014C00004E311E142508F080EE245520CE1445210
:1014D0000AE143500608D8B0A9D0FF0A04E14250FF
:1014E000D008D8B0A3D045520AE1445208E1435095
:1014F000070819E2FF0A03E14250980814E2482C59
:1015000001D003D04B6A010E486E4B5004080AE22A
:1015100086510B0802E2000E01D0010E4A6E010155
:101520004F8F00016AD0455231E144522FE14352BE
:101530002DE14250F9082AE38C51020818E0530EBD
:10154000706E650E716E6E0E726E730E736E6F0E30
:10155000746E720E756E640E806F650E816F660E0E
:10156000826F650E836F6B0E846F740E856F4850AB
:10157000020803E04B6A020E486E4B50040805E275
:10158000010E4A6E01014F8F000137D0455235E1FF
:10159000445233E14350010830E303E142502B0849
:1015A0002CE38C51020819E0440E6F6E720E706EBF
:1015B000690E716E660E726E740E736EEA6A7F0E3D
:1015C000E96E070E016EF76A000EBBEC00F00A0030
:1015D0000900F5CFEEFF012EFBD74850030803E0CA
:1015E0004B6A030E486E4B50040807E286510B0805
:1015F00002E2000E01D0010E4A6E455210E1445243
:101600000EE1435001080BE303E142508F0807E36A
:10161000456A446A010E436E900E426E06D0456ADA
:10162000446A070E436ED00E426E17D045520FE14A
:1016300044520DE1435001080AE303E14250F3082C
:1016400006E3456A446A010E436E900E426E486A94
:101650004A6A01014F9F509F00018C5305E14A5295
:1016600002E18A9E01D08A8E01012153D8B49AD01A
:101670005F6B5F51090866E3D8905F35036AEF0F2F
:10168000E96E000E0320EA6EECCF03F0ED52EFCFCF
:1016900001F0455209E1445207E10350435C50E335
:1016A00003E10150425C4CE3010E5F25006ED890CF
:1016B00000360050036AEF0FE96E000E0320EA6E59
:1016C000ECCF03F0ED52EFCF01F0455239E1445237
:1016D00037E14350035C34E303E14250015C30E303
:1016E000010E5F25006ED89000360050036AEF0FA0
:1016F000E96E000E0320EA6EECCF61F1ED52EFCF00
:1017000060F1D8905F35036AEF0FE96E000E032099
:10171000EA6EECCF03F0ED52EF50605D356F035091
:101720006159366FD8905F35036AEF0FE96E000E8E
:101730000320EA6EECCFAEF0ED52EFCFADF002D069
:101740005F2B97D7010E5F25006ED89000360050B2
:10175000036AC70FE96E000E0320EA6EECCF61F159
:10176000ED52EFCF60F1D8905F35036AC70FE96E95
:10177000000E0320EA6EECCF03F0ED52EF50605DF7
:10178000316F03506159326FD8905F35036AC70FCC
:10179000E96E000E0320EA6EECCFAAF0ED52EFCF17
:1017A000A9F014D00001A951B15D0101316F000110
:1017B000AA51B2590101326F060E366F400E356FD5
:1017C000010E0001AE6F900EAD6F01010001AD5131
:1017D000425C01015D6F0001AE51435801015E6F33
:1017E000636B626B5EC161F15DC160F131C100F09C
:1017F00032C101F0026A036A03C067F102C066F1F8
:1018000032C165F131C164F163C16BF162C16AF14A
:101810005EC169F15DC168F103C06FF102C06EF194
:1018200032C16DF131C16CF10001E9EC07F003C088
:101830005CF102C05BF101C05AF100C059F135C141
:1018400000F036C101F0026A036A03C063F102C00E
:1018500062F136C161F135C160F1D8925CC167F1C6
:101860005BC166F15AC165F159C164F103C06BF106
:1018700002C06AF136C169F135C168F116EC08F0B1
:1018800003C05CF102C05BF101C05AF100C059F124
:101890005AC12EF159C12DF1A95101012D27000185
:1018A000AA5101012E23000171EF0DF00101375102
:1018B0003811D8B489D0566B556B0D0EC16EC26A03
:1018C000A00EC06EA10EC06E010EC26E0D0E006E97
:1018D000002EFED7030EC26EC22C01D001D0FCD761
:1018E000D8903D34036A1D0FE96E000E0320EA6EA6
:1018F000C4CFECFFED52C3CFEFFF1F501D24596F33
:1019000020501E205A6F2150592722505A2323500D
:10191000592724505A232550592726505A232750F7
:10192000592728505A23295059272A505A232B50D7
:101930005925556F2C505A21566F56311A6E553114
:10194000196E1A3219321A3219321F0E1A16416ADA
:10195000406A1AC03FF019C03EF041C06BF140C070
:101960006AF13FC069F13EC068F16F6B6E6B070EA4
:101970006D6FD00E6C6F0001E9EC07F003C041F011
:1019800002C040F001C03FF000C03EF0D89241C01C
:1019900067F140C066F13FC065F13EC064F10101EE
:1019A0006B6B6A6B030E696F330E686F000116EC88
:1019B00008F003C041F002C040F001C03FF000C099
:1019C0003EF060EF08F0010139513A11D8B48AD0E5
:1019D000586B576B0D0EC16E040EC26EA00EC06E1A
:1019E000A10EC06E050EC26E0D0E006E002EFED74B
:1019F000070EC26EC2500508D8B401D0FBD7D890EC
:101A00003D34036A2D0FE96E000E0320EA6EC4CF49
:101A1000ECFFED52C3CFEFFF2F502D24596F305004
:101A20002E205A6F3150592732505A23335059279C
:101A300034505A233550592736505A233750592796
:101A400038505A23395059273A505A233B50592578
:101A5000576F3C505A21586F58311C6E57311B6ECE
:101A60001C321B321C321B321F0E1C16456A446A84
:101A70001CC043F01BC042F045C06BF144C06AF18A
:101A800043C069F142C068F16F6B6E6B070E6D6FFA
:101A9000D00E6C6F0001E9EC07F003C045F002C006
:101AA00044F001C043F000C042F0D89245C067F155
:101AB00044C066F143C065F142C064F101016B6B43
:101AC0006A6B030E696F330E686F000116EC08F045
:101AD00003C045F002C044F001C043F000C042F032
:101AE000E9D401010F0EC16E3D2A3D50070801E205
:101AF0003D6A000166EF23F001013B513C11D8A47F
:101B0000ABD00001905101012C5D15E308E12B5190
:101B100000018F5DD8A002D001010DD001014F81DD
:101B20004FB509D0036A09513F0FE96E010E03203A
:101B3000EA6EEFCF51F10001925101012C5D15E3E6
:101B400008E12B510001915DD8A002D001010DD018
:101B500001014F854FB909D0036A0A513F0FE96E61
:101B6000010E0320EA6EEFCF51F100019451010103
:101B70002C5D13E308E12B510001935DD8A002D046
:101B800001010BD001014F89036A0B513F0FE96E30
:101B9000010E0320EA6EEFCF51F100019F51935DDA
:101BA000006EA0519459036E00C001F001012C5148
:101BB000035C13E303E101502B5D0FE24FA90DD04D
:101BC0000F51040B0AE1036A0A513F0FE96E010E3F
:101BD0000320EA6EEFCF51F14F9900019D51915DC5
:101BE000006E9E519259036E00C001F001012C510C
:101BF000035C15E303E101502B5D11E24FA50FD00B
:101C00000F51020B0CE14FB90AD0036A09513F0F83
:101C1000E96E010E0320EA6EEFCF51F14F950001FE
:101C20009B518F5D006E9C519059036E00C001F076
:101C300001012C51035C0FE303E101502B5D0BE22A
:101C40004FA109D00F51010B06E14FB904D04FB598
:101C500002D0516B4F91A8D02C510001905D17E339
:101C600008E18F5101012B5DD8A002D000010FD0F7
:101C7000000101014F814FB509D0036A09513F0F9F
:101C8000E96E010E0320EA6EEFCF51F10001010170
:101C90002C510001925D17E308E1915101012B5D88
:101CA000D8A002D000010FD0000101014F854FB92B
:101CB00009D0036A0A513F0FE96E010E0320EA6E54
:101CC000EFCF51F1000101012C510001945D15E3AA
:101CD00008E1935101012B5DD8A002D000010DD085
:101CE000000101014F89036A0B513F0FE96E010E9C
:101CF0000320EA6EEFCF51F100019F519325016E51
:101D0000A0519421036E035001012C5D13E303E104
:101D10002B51015C0FE24FA90DD00F51040B0AE1CA
:101D2000036A0A513F0FE96E010E0320EA6EEFCFFE
:101D300051F14F9900019D519125016E9E519221C3
:101D4000036E035001012C5D15E303E12B51015C8F
:101D500011E24FA50FD00F51020B0CE14FB90AD081
:101D6000036A09513F0FE96E010E0320EA6EEFCFBF
:101D700051F14F9500019B518F25016E9C5190218F
:101D8000036E035001012C5D0FE303E12B51015C55
:101D90000BE24FA109D00F51010B06E14FB904D05E
:101DA0004FB502D0516B4F914FB102D08A9401D000
:101DB0008A844FB502D08A9201D08A824FB902D06C
:101DC0008A9001D08A803D513E11D8A4ABD0000149
:101DD000965101012E5D15E308E12D510001955D3D
:101DE000D8A002D001010DD001014F834FB709D017
:101DF000036A0C513F0FE96E010E0320EA6EEFCF2C
:101E000052F10001985101012E5D15E308E12D51B9
:101E10000001975DD8A002D001010DD001014F87CC
:101E20004FBB09D0036A0D513F0FE96E010E03202D
:101E3000EA6EEFCF52F100019A5101012E5D13E3DA
:101E400008E12D510001995DD8A002D001010BD00D
:101E500001014F8B036A0E513F0FE96E010E032003
:101E6000EA6EEFCF52F10001A551995D006EA651C7
:101E70009A59036E00C001F001012E51035C13E377
:101E800003E101502D5D0FE24FAB0DD00F51200B40
:101E90000AE1036A0D513F0FE96E010E0320EA6E5D
:101EA000EFCF52F14F9B0001A351975D006EA451FB
:101EB0009859036E00C001F001012E51035C15E337
:101EC00003E101502D5D11E24FA70FD00F51100B10
:101ED0000CE14FBB0AD0036A0C513F0FE96E010EB3
:101EE0000320EA6EEFCF52F14F970001A151955DAB
:101EF000006EA2519659036E00C001F001012E51EF
:101F0000035C0FE303E101502D5D0BE24FA309D009
:101F10000F51080B06E14FBB04D04FB702D0526BF4
:101F20004F93A8D02E510001965D17E308E195511B
:101F300001012D5DD8A002D000010FD000010101E8
:101F40004F834FB709D0036A0C513F0FE96E010E62
:101F50000320EA6EEFCF52F1000101012E51000182
:101F6000985D17E308E1975101012D5DD8A002D0DB
:101F700000010FD0000101014F874FBB09D0036A58
:101F80000D513F0FE96E010E0320EA6EEFCF52F1C3
:101F9000000101012E5100019A5D15E308E19951FC
:101FA00001012D5DD8A002D000010DD0000101017A
:101FB0004F8B036A0E513F0FE96E010E0320EA6E4C
:101FC000EFCF52F10001A5519925016EA6519A213A
:101FD000036E035001012E5D13E303E12D51015CFB
:101FE0000FE24FAB0DD00F51200B0AE1036A0D51E8
:101FF0003F0FE96E010E0320EA6EEFCF52F14F9BC7
:102000000001A3519725016EA4519821036E03503E
:1020100001012E5D15E303E12D51015C11E24FA793
:102020000FD00F51100B0CE14FBB0AD0036A0C51BB
:102030003F0FE96E010E0320EA6EEFCF52F14F978A
:102040000001A1519525016EA2519621036E035006
:1020500001012E5D0FE303E12D51015C0BE24FA363
:1020600009D00F51080B06E14FBB04D04FB702D087
:10207000526B4F934FB302D08A9C01D08A8C4FB7DA
:1020800002D08A9A01D08A8A4FBB02D08A9801D0A6
:102090008A88535312E0035301E00F81045301E097
:1020A0000F83055301E00F85065301E00F870753A7
:1020B00001E00F89085301E00F8B00016AEF23F064
:1020C00080A41DD04C50030803E101010F6B0001F7
:1020D000505214E1010E506E4D6A4E6A646A626A93
:1020E000636A0101276F576A5A6B0C0E5B6F000120
:1020F00079EC02F00101536B8C90000104D0505236
:1021000001E0506A4C6A1200010EEA6E600EE96E40
:10211000006A026A050E016EC9EC02F001015C5111
:102120005D1110E05D51260807E2FF0A03E15C51F2
:102130000F0802E2602B01D005D0100E5C5F270E65
:102140005D5BEDD75C515D1110E05D51020807E267
:10215000FF0A03E15C51E70802E2612B01D005D0E0
:10216000E80E5C5F030E5D5BEDD75C515D110DE029
:102170005D5303E15C51630802E2622B01D005D09C
:10218000640E5C5F000E5D5BF0D75C515D110DE08D
:102190005D5303E15C51090802E2632B01D005D0D5
:1021A0000A0E5C5F000E5D5BF0D75CC164F16053AA
:1021B0000BE0036A5F51760FE96E000E0320EA6EB2
:1021C000300E6025EF6E09D0036A5F51760FE96E1D
:1021D000000E0320EA6E200EEF6E5E51020801E051
:1021E0005F2B605302E161530CE0036A5F51760F8D
:1021F000E96E000E0320EA6E300E612761C1EFFF29
:102200000BD0605309E1036A5F51760FE96E000E4F
:102210000320EA6E200EEF6E5F2B605304E16153E2
:1022200002E162530CE0036A5F51760FE96E000E23
:102230000320EA6E300E622762C1EFFF0DD06053BB
:102240000BE1615309E1036A5F51760FE96E000EFD
:102250000320EA6E200EEF6E5F2B5E2D0AD0036A1C
:102260005F51760FE96E000E0320EA6E2E0EEF6EC0
:102270005F2B605309E1615307E1625305E163534A
:1022800003E15E5102080CE1036A5F51760FE96ECB
:10229000000E0320EA6E300E632763C1EFFF0FD0FC
:1022A00060530DE161530BE1625309E1036A5F5131
:1022B000760FE96E000E0320EA6E200EEF6E5F2BA4
:1022C0005E5102080AE1036A5F51760FE96E000E63
:1022D0000320EA6E2E0EEF6E5F2B036A5F51760FBE
:1022E000E96E000E0320EA6E300E642764C1EFFF32
:1022F000000112000101595317E1036A5A51760F88
:10230000016E000E032201C05BF103C05CF103C04B
:10231000EAFF01C0E9FF550EEF6EE92A450EEF6EA8
:10232000E92A470EEF6E2AD0592D17D0036A5A5169
:10233000760F016E000E032201C05BF103C05CF159
:1023400003C0EAFF01C0E9FF560EEF6EE92A4F0E07
:10235000EF6EE92A4C0EEF6E11D0036A5A51760FD8
:10236000016E000E032203C0EAFF01C0E9FF700EF8
:10237000EF6EE92AEF6EE92A6D0EEF6E0001120092
:10238000865303E086510D0836E101015A6B800E39
:102390005B6F000179EC02F00101576B57510F0898
:1023A0000FE3036A5751660FE96E000E0320EA6ED1
:1023B000EFCF59F10001C2EC07F00101572BEED726
:1023C0005A6BC00E5B6F000179EC02F00101576B94
:1023D00057510F080FE3036A5751760FE96E000E4D
:1023E0000320EA6EEFCF59F10001C2EC07F00101C2
:1023F000572BEED70001120001013751381120E0B0
:1024000047521EE1EA6A680EE96E010EE26E100E96
:10241000E16E050E016EE6CFEEFF012EFCD72CC15A
:102420005DF12BC15CF11EC15EF15F6B00016CDEE2
:102430001CC159F1050E01015A6F00015BDF01015A
:1024400039513A1121E048521FE1EA6A700EE96EF3
:10245000010EE26E150EE16E050E016EE6CFEEFF87
:10246000012EFCD72EC15DF12DC15CF11FC15EF1C3
:10247000080E5F6F000148DE1DC159F10D0E01010C
:102480005A6F000137DF010100017ADF1200875324
:1024900022E1020E8C6FEA6A660EE96E100E016E82
:1024A000F76A000EC7EC00F00A000900F5CFEEFF56
:1024B000012EFBD7EA6A760EE96E0E0E016EF76A00
:1024C000000ED8EC00F00A000900F5CFEEFF012E57
:1024D000FBD756DF2BD08751140822E1020E8C6FF8
:1024E000EA6A660EE96E0B0E016EF76A000EE8EC02
:1024F00000F00A000900F5CFEEFF012EFBD7EA6AD3
:10250000760EE96E0C0E016EF76A000EF6EC00F026
:102510000A000900F5CFEEFF012EFBD731DF06D010
:102520008751270803E2010E8C6F66DF86510B0886
:1025300002E28A9601D08A8686510B0802E28A9EC0
:1025400001D08A8E89EF23F0EA6A670EE96E080EE1
:10255000016EF76A000EAEEC00F00A000900F5CF3C
:10256000EEFF012EFBD7575002080CE1660E706E8D
:10257000610E716E6C0E726E730E736E630E746EFE
:10258000680E756E58C077F059C078F05AC079F06F
:102590005BC07AF0F5DE12000101562D01D003D0A8
:1025A000400E576F01D0576B010E555D572757519D
:1025B0008009586F5A6B5B6F000179EC02F01200D2
:1025C00001015851016A575D03E257C100F00CD078
:1025D000006A080E596F573700365851005CD8B062
:1025E000006E0136592FF7D70001120080AAE2D001
:1025F0005152D8A4DCD05452D8A4D9D00A0E546E6B
:10260000010E516E575246E05750020802E1010E8A
:10261000576E61521FE1020E5C5C036A580FE96E4F
:10262000000E0320EA6EEF2A020E5C5C036A580F6C
:10263000E96E000E0320EA6EEF5039080AE2020E3E
:102640005C5C036A580FE96E000E0320EA6E300EE0
:10265000EF6E1ED0020E5C5C036A580FE96E000E2E
:102660000320EA6EEF06020E5C5C036A580FE96E07
:10267000000E0320EA6EEF502F080AE3020E5C5CA6
:10268000036A580FE96E000E0320EA6E390EEF6EF2
:1026900077DE8DD0645219E0010E0101286F4B5096
:1026A000030803E1566A0A0E556E4B50050803E114
:1026B000566A640E556E4B50080804E1030E566EC0
:1026C000E80E556E516A74D000014E50F40FD8B028
:1026D0006ED00C0FEBEF15F04D50C80802E14D6ABB
:1026E00002D0640E4D2663D04D50280803E10A0E37
:1026F0004D6E02D00A0E4D265AD04D508C0803E183
:102700006E0E4D6E02D00A0E4D2651D04D50D5089A
:1027100003E1D30E4D6E01D04D2A49D04D500E0825
:1027200003E10B0E4D6E01D04D2A41D04D501808DB
:1027300003E1150E4D6E01D04D2A39D04D502208BF
:1027400003E11F0E4D6E01D04D2A31D00101205101
:102750000A0DF3502F0F4D5C03E1290E4D6E01D091
:102760004D2A000124D04D50720803E16F0E4D6ECA
:1027700001D04D2A1CD04D507C0803E1790E4D6EDE
:1027800001D04D2A14D04D50860803E1830E4D6EC2
:1027900001D04D2A0CD0010121510A0DF350930FA5
:1027A0004D5C03E18D0E4D6E01D04D2A00010101FB
:1027B0000AD00001515201E0516A566A010E556E6D
:1027C0004C6A4B6A010184A294D15352D8A48ED191
:1027D0005452D8A48BD10A0E546E010E536E572C4E
:1027E00029D05D50585C09E15E50595C06E15F50AC
:1027F0005A5C03E160505B5C0CE05850320815E114
:102800005950330812E15A5031080FE15B5031083A
:102810000CE1576A5A6B0C0E5B6F000179EC02F009
:10282000626A020E5C6E04D00101020E576E000156
:102830005ED10101622C04D1635205E1010E646E88
:10284000020E5C6EF9D0575003085BE158C05DF092
:10285000F250006EF29EA96A5DC0A8FFA69CA69EDB
:10286000A6840F01550EA76EAA0EA76EA682A6B269
:10287000FED7A6940050F21259C05EF0F2CF00F0DD
:10288000F29E010EA96E5EC0A8FFA69CA69EA6841D
:10289000550EA76EAA0EA76EA682A6B2FED7A69464
:1028A0000050F2125AC05FF0F2CF00F0F29E020E1A
:1028B000A96E5FC0A8FFA69CA69EA684550EA76E13
:1028C000AA0EA76EA682A6B2FED7A6940050F21258
:1028D0005BC060F0F2CF00F0F29E030EA96E60C004
:1028E000A8FFA69CA69EA684550EA76EAA0EA76E4C
:1028F000A682A6B2FED7A6940050F212576A9AD0CA
:102900000101545362E0F250006EF29E22C1A9FF11
:1029100023C1A8FFA69CA69EA6840F01550EA76EF4
:10292000AA0EA76EA682A6B2FED7A6940050F212F7
:10293000010E01012225556FF250006EF29E55C125
:10294000A9FF24C1A8FFA69CA69EA6840F01550E30
:10295000A76EAA0EA76EA682A6B2FED7A6940050B6
:10296000F212140E01012225556FF250006EF29EF4
:1029700055C1A9FF25C1A8FFA69CA69EA6840F014C
:10298000550EA76EAA0EA76EA682A6B2FED7A69473
:102990000050F212150E01012225556FF250006E03
:1029A000F29E55C1A9FF26C1A8FFA69CA69EA6849B
:1029B0000F01550EA76EAA0EA76EA682A6B2FED76D
:1029C000A6940050F21236D00101F250006EF29E31
:1029D00022C1A9FF23C1A8FFA69CA69EA6840F0121
:1029E000550EA76EAA0EA76EA682A6B2FED7A69413
:1029F0000050F21201012751020819E1010E2225AF
:102A0000556FF250006EF29E55C1A9FF24C1A8FF78
:102A1000A69CA69EA6840F01550EA76EAA0EA76EB1
:102A2000A682A6B2FED7A6940050F2120101010EB2
:102A3000276F0F01646A0101010ED880635656D0DA
:102A40004D5205E1010E4E6E0A0E4D6E4FD04D50A7
:102A5000640805E1020E4E6E6E0E4D6E47D04D506D
:102A6000C80805E1030E4E6ED30E4D6E3FD04D509B
:102A70000A0805E1040E4E6E0B0E4D6E37D04D5018
:102A8000140805E1050E4E6E150E4D6E2FD04D50FB
:102A90001E0805E1060E4E6E1F0E4D6E27D04D50DE
:102AA000280805E1070E4E6E290E4D6E1FD04D50C1
:102AB0006E0805E1080E4E6E6F0E4D6E17D04D502C
:102AC000780805E1090E4E6E790E4D6E0FD04D500F
:102AD000820805E10A0E4E6E830E4D6E07D04D50F2
:102AE0008C0804E10B0E4E6E8D0E4D6E000105D06C
:102AF0000101535201E0536A000184A029D05252CF
:102B000026E1545224E10A0E546E010E526E5752C1
:102B100014E05750020802E1010E576E615207E1BE
:102B20005C2A5C50060802E1020E5C6E05D05C0671
:102B30005C2C02D0050E5C6E0AD0645208E05C503A
:102B4000020803E10F0E5C6E02D0020E5C6E03D031
:102B5000525201E0526A572C01D004D06452D8B4CA
:102B600060EC10F080A607D04F5204E1010E4F6ECA
:102B7000D880615603D04F5201E04F6A4DC057F1E3
:102B80000A0E0101586F00011BDD005206E14D5095
:102B9000320803E04D50960802E1010E626E572C98
:102BA00001D018D064520FE05CC055F1020E010153
:102BB000566F0001F1DC01015A6B0F0E5B6F0001D3
:102BC00079EC02F007D001015A6B0C0E5B6F00012B
:102BD00079EC02F01200E824F76AF736F10FF66E8E
:102BE0002B0EF7220A00F550FA6E0800F550F96E28
:102BF000D826E826FA260C271C272C273C274C270A
:102C000066277627862796270101595315E1530E2B
:102C1000676E650E686E6E0E696E730E6A6E6F0E6D
:102C20006B6E720E6C6E4D50630802E3000E01D0A5
:102C3000010E310F6D6E23D0530E666E4D5063083A
:102C400002E3000E01D0010E310F676E3A0E686E7E
:102C5000592D15D0EA6A6A0EE96E0A0E016EF76AFE
:102C6000000E000162EC00F00A000900F5CFEEFF53
:102C7000012EFBD74E50030B310F746E0101000182
:102C80001200020E0101596F0001BEDFEA6A6A0EEE
:102C9000E96E0A0E016EF76A000E05EC01F00A00FB
:102CA0000900F5CFEEFF012EFBD7010157510808AF
:102CB00004E3310E5725746E04D0310E746E300E5D
:102CC000756E6452D8B4AAD12853D8B4A7D1010ED6
:102CD000546F6152D8A4A5D05C50020842E158510B
:102CE000140DF3505A6B596FD8905735036A592514
:102CF000016E5A5103220150B30FE96E000E0320FA
:102D0000EA6EECCF5AF1ED52EFCF59F15550295DF3
:102D1000006E56502A59036E00C001F05A51035CF0
:102D20001FE303E15951015C1BE35851140DF350AB
:102D30005A6B596FD8905735036A5925016E5A510D
:102D400003220150B30FE96E000E0320EA6E5550C6
:102D5000EF24016E5650EC20ED5201C0EFFFEC6EF7
:102D60005FD058532FE1D8905735036ADB0FE96ED7
:102D7000000E0320EA6EECCF5AF1ED52EFCF59F17D
:102D8000D00ED8805554006E070E5654036E00C006
:102D900001F05A51035C15E303E15951015C11E361
:102DA000D8905735036ADB0FE96E000E0320EA6EF8
:102DB0005550EF24016E5650EC20ED5201C0EFFF4C
:102DC000EC6E2ED0D8905735036AEF0FE96E000EE7
:102DD0000320EA6EECCF5AF1ED52EFCF59F1D00E4D
:102DE000D8805554006E070E5654036E00C001F093
:102DF0005A51035C15E303E15951015C11E3D8908A
:102E00005735036AEF0FE96E000E0320EA6E555046
:102E1000EF24016E5650EC20ED5201C0EFFFEC6E36
:102E200090D05C5002083CE15851140DF3505A6B9D
:102E3000596FD8905735036A5925016E5A510322AC
:102E40000150B30FE96E000E0320EA6EECCF5AF189
:102E5000ED52EFCF59F156505A5D21E303E1555041
:102E6000595D1DE35851140DF3505A6B596FD890AA
:102E70005735036A5925016E5A5103220150B30F89
:102E8000E96E000E0320EA6E5550EF5C006E56505E
:102E9000EC58036E0050ED52EF6E03C0ECFF51D0C2
:102EA000585328E1D8905735036ADB0FE96E000EBE
:102EB0000320EA6EECCF5AF1ED52EFCF59F15650A4
:102EC0005A5D17E303E15550595D13E3D890573528
:102ED000036ADB0FE96E000E0320EA6E5550EF5CCB
:102EE000006E5650EC58036E0050ED52EF6E03C06A
:102EF000ECFF27D0D8905735036AEF0FE96E000E2C
:102F00000320EA6EECCF5AF1ED52EFCF59F1565053
:102F10005A5D17E303E15550595D13E3D8905735D7
:102F2000036AEF0FE96E000E0320EA6E5550EF5C66
:102F3000006E5650EC58036E0050ED52EF6E03C019
:102F4000ECFF5851140DF3505A6B596FD890573508
:102F5000036A5925016E5A5103220150B30FE96EDD
:102F6000000E0320EA6EECCF23F1ED52EFCF59F1C2
:102F70005851140DF3505A6B596FD8905735036A56
:102F80005925016E5A5103220150B30FE96E000E0C
:102F90000320EA6EECCF5AF1ED52EFCF24F15853F3
:102FA0001FE1D89057350F0F226FD8905735036A1D
:102FB000DB0FE96E000E0320EA6EECCF25F1ED5237
:102FC000EFCF59F1D8905735036ADB0FE96E000E49
:102FD0000320EA6EECCF5AF1ED52EFCF26F11ED06E
:102FE000D89057353F0F226FD8905735036AEF0FAF
:102FF000E96E000E0320EA6EECCF25F1ED52EFCF23
:1030000059F1D8905735036AEF0FE96E000E03208F
:10301000EA6EECCF5AF1ED52EFCF26F15851140D74
:10302000F3505A6B596FD8905735036A5925016E82
:103030005A5103220150B30FE96E000E0320EA6ECD
:10304000ECCF5DF1ED52EFCF5CF1036A58511E0FEA
:10305000E96E010E0320EA6EEFCF5EF15F6B0001B7
:1030600084EC10F0036A010158511C0FE96E010E47
:103070000320EA6EEF50020806E1700E7B6E7C6E54
:103080006D0E7D6E02D0250E7B6E585316E1D890E2
:103090005735036ADB0FE96E000E0320EA6EECCFB2
:1030A0005DF1ED52EFCF5CF1010E5E6F080E5F6FC8
:1030B000000184EC10F015D00101D8905735036A57
:1030C000EF0FE96E000E0320EA6EECCF5DF1ED52DA
:1030D000EFCF5CF1010E5E6F080E5F6F000184ECB4
:1030E00010F06D0E846F410E856F12000101556B5B
:1030F0004D50620802E3566B02D0010E566F036A10
:1031000056511C0FE96E010E0320EA6EEF500208C3
:103110000DE1FD0E2A6FE80E296F036A56511E0F4E
:10312000E96E010E0320EA6EEF6A0DD0030E2A6FDE
:10313000E80E296F036A56511E0FE96E010E032037
:10314000EA6E020EEF6E4D5206E04D50640803E049
:103150004D50C80837E1EA6A670EE96E0D0E016E40
:10316000F76A000E000130EC01F00A000900F5CF0B
:10317000EEFF012EFBD74D50C70815E3530E776EB7
:10318000650E786E6E0E796E730E7A6E6F0E7B6EB4
:10319000720E7C6E4D50640802E0000E01D0010EEC
:1031A000310F7D6E0CD0530E776E790E786E730EE4
:1031B000796E740E7A6E650E7B6E6D0E7C6ECDEF41
:1031C0001DF001014D502F0811E24D5039080EE35A
:1031D00020530CE0300E4D5C556F55C157F156C170
:1031E00058F100014EDDCDEF1DF001014D50930867
:1031F00011E24D509D080EE321530CE0940E4D5CFE
:10320000556F55C157F156C158F100013ADDCDEF68
:103210001DF001014DC057F10A0E586F0001E0EC9E
:1032200012F000523FE10101596B0001EDDC4D50FD
:10323000280803E04D508C0810E1EA6A770EE96E29
:103240000D0E016EF76A000E3FEC01F00A00090056
:10325000F5CFEEFF012EFBD723D0EA6A770EE96E99
:103260000A0E016EF76A000E62EC00F00A00090017
:10327000F5CFEEFF012EFBD74D500A0803E04D506D
:103280006E0803E1310E816F0BD04D50140803E03E
:103290004D50780803E1320E816F02D0330E816FFA
:1032A000CDEF1DF04D50290803E04D508D0866E12B
:1032B000020E0101596F0001A7DCEA6A6A0EE96E8D
:1032C000080E016EF76A000E4EEC01F00A000900CC
:1032D000F5CFEEFF012EFBD7645233E001012853F6
:1032E000D8A402D000012DD0D8905635036A370FEC
:1032F000016E010E032203C058F1D8905635036ABF
:10330000370FE96E010E0320EA6EECCF03F0ED52A9
:10331000EF50FF0A020F006E000E035658C1EAFF7D
:1033200001C0E9FF03C0ECFFED5200C0EFFF00C099
:1033300023F1565303E10E0E226F02D03E0E226F90
:103340000001D89001015635036A370FE96E010E6E
:103350000320EA6EEF5202E1EC5205E04A0E7A6E6B
:10336000610E7B6E08D04E0E7A6E650E7B6E690E16
:103370007C6E6E0E7D6ECEEF1DF000014D502A0862
:1033800003E04D508E0869E1020E0101596F000102
:103390003BDC540E6A6E790E6B6E700E6C6E64526E
:1033A0003FE001012853D8A402D0000139D0036ABC
:1033B00056511A0FE96E010E0320EA6EEF50140801
:1033C00009E3036A56511A0FE96E010E0320EA6EF3
:1033D000EF2A08D0036A56511A0FE96E010E032036
:1033E000EA6EEF6A036A56511A0FE96E010E032066
:1033F000EA6EEFCF23F1565303E1070E226F02D09E
:10340000370E226F036A56511A0FE96E010E032020
:10341000EA6EEFCF59F156C158F10001D6EC02F037
:1034200001015651050DF350036A100F016E010E94
:10343000032201C057F103C058F1EA6A7A0EE96E1F
:1034400003C0E2FF01C0E1FF050E016EE6CFEEFF13
:10345000012EFCD7CEEF1DF000014D502B0804E0EB
:103460004D508F08D8A475D0020E0101596F00018C
:1034700004EC16F0EA6A6A0EE96E070E016EF76A4E
:10348000000E5BEC01F00A000900F5CFEEFF012E03
:10349000FBD764524EE001012853D8A402D00001AA
:1034A00048D0036A56511C0FE96E010E0320EA6EE4
:1034B000EF50010809E3036A56511C0FE96E010E33
:1034C0000320EA6EEF2A08D0036A56511C0FE96EFA
:1034D000010E0320EA6EEF6A036A56511C0FE96E73
:1034E000010E0320EA6EEFCF23F1565303E1080EDD
:1034F000226F02D0380E226F036A55511C0FE96EFD
:10350000010E0320EA6EEF50020809E1036A5651EA
:103510001E0FE96E010E0320EA6EEF6A09D0036AFE
:1035200056511E0FE96E010E0320EA6E020EEF6E79
:103530000001036A010156511C0FE96E010E0320C0
:10354000EA6EEFCF59F1040E5A6F00017AEC11F0D8
:1035500024D34D502C0804E04D509008D8A4B6D088
:10356000020E0101596F000104EC16F0EA6A6A0EBE
:10357000E96E0B0E016EF76A000E67EC01F00A00AF
:103580000900F5CFEEFF012EFBD76452D8B481D0ED
:1035900001012853D8A402D000017BD0020E276F6E
:1035A00061522EE1D8905635036AA70FE96E000EDE
:1035B0000320EA6EECCF58F1ED52EFCF57F15550A2
:1035C000295D006E56502A59036E00C001F0585113
:1035D000035C15E303E15751015C11E3D8905635C4
:1035E000036AA70FE96E000E0320EA6E5550EF2420
:1035F000016E5650EC20ED5201C0EFFFEC6E27D06B
:10360000D8905635036AA70FE96E000E0320EA6EC4
:10361000ECCF58F1ED52EFCF57F15650585D17E30C
:1036200003E15550575D13E3D8905635036AA70F51
:10363000E96E000E0320EA6E5550EF5C006E5650A6
:10364000EC58036E0050ED52EF6E03C0ECFFD890C3
:103650005635036AA70FE96E000E0320EA6EECCF21
:1036600023F1ED52EFCF57F1D8905635036AA70FEB
:10367000E96E000E0320EA6EECCF58F1ED52EFCF69
:1036800024F1565303E10B0E226F02D03B0E226F42
:103690000001D89001015635036AA70FE96E000EAC
:1036A0000320EA6EECCF5DF1ED52EFCF5CF1036ADF
:1036B00056511E0FE96E010E0320EA6EEFCF5EF148
:1036C000030E5F6F000184EC10F067D24D502D089F
:1036D00004E04D509108D8A4B6D0020E0101596FF4
:1036E000000104EC16F0EA6A6A0EE96E0A0E016E39
:1036F000F76A000E75EC01F00A000900F5CFEEFF45
:10370000012EFBD76452D8B481D001012853D8A42C
:1037100002D000017BD0020E276F61522EE1D890BB
:103720005635036AAF0FE96E000E0320EA6EECCF48
:1037300058F1ED52EFCF57F15550295D006E5650BC
:103740002A59036E00C001F05851035C15E303E1F0
:103750005751015C11E3D8905635036AAF0FE96EFB
:10376000000E0320EA6E5550EF24016E5650EC20F7
:10377000ED5201C0EFFFEC6E27D0D8905635036AAA
:10378000AF0FE96E000E0320EA6EECCF58F1ED5258
:10379000EFCF57F15650585D17E303E15550575D91
:1037A00013E3D8905635036AAF0FE96E000E03207D
:1037B000EA6E5550EF5C006E5650EC58036E0050A8
:1037C000ED52EF6E03C0ECFFD8905635036AAF0F91
:1037D000E96E000E0320EA6EECCF23F1ED52EFCF3D
:1037E00057F1D8905635036AAF0FE96E000E0320EB
:1037F000EA6EECCF58F1ED52EFCF24F1565303E1CE
:10380000090E226F02D0390E226F0001D8900101FB
:103810005635036AAF0FE96E000E0320EA6EECCF57
:103820005DF1ED52EFCF5CF1036A56511E0FE96E68
:10383000010E0320EA6EEFCF5EF1030E5F6F000111
:1038400084EC10F0AAD14D502E0804E04D5092089F
:10385000D8A47AD0020E0101596F000104EC16F0D1
:10386000EA6A690EE96E0D0E016EF76A000E83ECCE
:1038700001F00A000900F5CFEEFF012EFBD76452DC
:1038800033E001012853D8A402D000012DD0D890F4
:103890005635036A3B0F016E010E032203C058F137
:1038A000D8905635036A3B0FE96E010E0320EA6E8D
:1038B000ECCF03F0ED52EF50FF0A020F006E000E46
:1038C000035658C1EAFF01C0E9FF03C0ECFFED5207
:1038D00000C0EFFF00C023F1565303E18B0E226FAF
:1038E00002D08C0E226F0001D89001015635036A78
:1038F0003B0FE96E010E0320EA6EEF5214E1EC5229
:1039000012E1EA6A7A0EE96E080E016EF76A000E9D
:10391000000192EC01F00A000900F5CFEEFF012E44
:10392000FBD711D00101EA6A7A0EE96E070E016E2B
:10393000F76A000E00019FEC01F00A000900F5CFC4
:10394000EEFF012EFBD729D14D502F0803E04D503B
:10395000930860E1020E0101596F000104EC16F0BA
:10396000EA6A6A0EE96E0A0E016EF76A000EABECA7
:1039700001F00A000900F5CFEEFF012EFBD76452DB
:1039800026E001012853D8A402D0000120D0036A08
:103990005651200F016E010E032203C058F1036A35
:1039A0005651200FE96E010E0320EA6EEF50FF0A18
:1039B000020F58C1EAFF01C0E9FFEF6E236F5653B3
:1039C00003E10D0E226F02D03D0E226F0001036A4B
:1039D00001015651200FE96E010E0320EA6EEF52ED
:1039E0000DE14C0E7A6E690E7B6E6E0E7C6E650E6E
:1039F0007D6E610E7E6E720E7F6E0AD04B0E7A6EF9
:103A0000750E7B6E720E7C6E760E7D6E650E7E6E12
:103A1000C5D000014D50D30846E1EA6A670EE96E51
:103A20000D0E016EF76A000EB9EC01F00A000900F4
:103A3000F5CFEEFF012EFBD7645219E001012853A8
:103A4000D8A402D0000113D0615207E100018A51CD
:103A50001D0801E38A2B05D0010100018A5301E012
:103A60008A078AC023F1040E0101226F00010101BF
:103A70005D6B8AC05CF15E6BFE0E5F6F000184ECD3
:103A800010F04D0E7A6E690E7B6E6E0E7C6E750EAA
:103A90007D6E740E7E6E650E7F6E8A51010802E2A5
:103AA0006E0E806F7AD04D50D40866E1EA6A660ED9
:103AB000E96E100E016EF76A000EC8EC01F00A0004
:103AC0000900F5CFEEFF012EFBD7645237E001016C
:103AD0002853D8A402D0000131D0020E276F6152C2
:103AE00017E16D0ED8805554006E010E5654036ECA
:103AF00000C001F000018E51035C08E303E18D5129
:103B0000015C04E355508D2756508E230DD00101E2
:103B1000565000018E5D08E303E155508D5D04E3CE
:103B200055508D5F56508E5B8C6B8EC023F101011A
:103B30008DC024F10101050E226F0001690E776E20
:103B40006E0E786E8EC05DF18DC05CF101015E6B12
:103B5000030E5F6F000184EC10F0540E7F6E610E57
:103B6000806F670E816F8D2D02D08E5304E0650E3D
:103B7000826F6E0E836F11D04D50D5080EE16452E6
:103B800002E0030E576E5DC058F05EC059F05FC092
:103B90005AF060C05BF0A4EC12F001010001B2EF3A
:103BA00023F0020E0101276F615242E15751060DC9
:103BB000F3505A6B596FD8905835036A5925016EE6
:103BC0005A51032201508F0FE96E000E0320EA6E56
:103BD000ECCF5AF1ED52EFCF59F15550295D006EFF
:103BE00056502A59036E00C001F05A51035C1FE37E
:103BF00003E15951015C1BE35751060DF3505A6B19
:103C0000596FD8905835036A5925016E5A510322CD
:103C100001508F0FE96E000E0320EA6E5550EF241D
:103C2000016E5650EC20ED5201C0EFFFEC6E3BD020
:103C30005751060DF3505A6B596FD8905835036A97
:103C40005925016E5A51032201508F0FE96E000E63
:103C50000320EA6EECCF5AF1ED52EFCF59F15650F6
:103C60005A5D21E303E15550595D1DE35751060D9F
:103C7000F3505A6B596FD8905835036A5925016E25
:103C80005A51032201508F0FE96E000E0320EA6E95
:103C90005550EF5C006E5650EC58036E0050ED52DC
:103CA000EF6E03C0ECFF5751060DF3505A6B596F7E
:103CB000D8905835036A5925016E5A510322015094
:103CC0008F0FE96E000E0320EA6EECCF23F1ED5268
:103CD000EFCF59F15751060DF3505A6B596FD890E9
:103CE0005835036A5925016E5A51032201508F0F2E
:103CF000E96E000E0320EA6EECCF5AF1ED52EFCFE1
:103D000024F1575306E15851060DF350670F226F07
:103D100005D05851060DF350790F226F000178EF4E
:103D200021F0020E0101276F615242E15751060D49
:103D3000F3505A6B596FD8905835036A5925016E64
:103D40005A51032201509B0FE96E000E0320EA6EC8
:103D5000ECCF5AF1ED52EFCF59F15550295D006E7D
:103D600056502A59036E00C001F05A51035C1FE3FC
:103D700003E15951015C1BE35751060DF3505A6B97
:103D8000596FD8905835036A5925016E5A5103224C
:103D900001509B0FE96E000E0320EA6E5550EF2490
:103DA000016E5650EC20ED5201C0EFFFEC6E3BD09F
:103DB0005751060DF3505A6B596FD8905835036A16
:103DC0005925016E5A51032201509B0FE96E000ED6
:103DD0000320EA6EECCF5AF1ED52EFCF59F1565075
:103DE0005A5D21E303E15550595D1DE35751060D1E
:103DF000F3505A6B596FD8905835036A5925016EA4
:103E00005A51032201509B0FE96E000E0320EA6E07
:103E10005550EF5C006E5650EC58036E0050ED525A
:103E2000EF6E03C0ECFF5751060DF3505A6B596FFC
:103E3000D8905835036A5925016E5A510322015012
:103E40009B0FE96E000E0320EA6EECCF23F1ED52DA
:103E5000EFCF59F15751060DF3505A6B596FD89067
:103E60005835036A5925016E5A51032201509B0FA0
:103E7000E96E000E0320EA6EECCF5AF1ED52EFCF5F
:103E800024F1575306E15851060DF350690F226F84
:103E900005D05851060DF3507B0F226F0001F0EF53
:103EA00021F001015751030DF3505A6B596F036A0A
:103EB00058515925016E5A5103220150030F016ECA
:103EC000010E032201C059F103C05AF15751030DED
:103ED000F3505C6B5B6F036A58515B25016E5C515C
:103EE00003220150030FE96E010E0320EA6EEF502A
:103EF000FF0A020F5AC1EAFF59C1E9FFEF6E236FB3
:103F0000575306E15851060DF3506B0F226F05D041
:103F10005851060DF3507D0F226F00015EEF22F025
:103F2000010E0101276F615227E15751030DF35034
:103F30005A6B596F036A58515925016E5A51032221
:103F40000150090FE96E010E0320EA6EEF500F08D1
:103F500012E35751030DF3505A6B596F036A5851CE
:103F60005925016E5A5103220150090FE96E010EC5
:103F70000320EA6EEF2A26D05751030DF3505A6BF7
:103F8000596F036A58515925016E5A510322015045
:103F9000090FE96E010E0320EA6EEF50010812E2EC
:103FA0005751030DF3505A6B596F036A58515925F5
:103FB000016E5A5103220150090FE96E010E0320D0
:103FC000EA6EEF065751030DF3505A6B596F036AAF
:103FD00058515925016E5A5103220150090FE96EBB
:103FE000010E0320EA6EEFCF23F1575306E158513B
:103FF000060DF3506C0F226F05D05851060DF3508B
:104000007E0F226F0001D0EF22F00101582D03D066
:10401000310E7C6EBFD05851020803E1320E7C6E27
:10402000B9D05851030803E1330E7C6EB3D0585118
:10403000040803E1340E7C6EADD05851050809E147
:10404000310E7C6E200E7D6E4B0E7E6E320E7F6EBC
:10405000A1D05851060809E1320E7C6E200E7D6E0B
:104060004B0E7E6E330E7F6E95D05851070809E1D6
:10407000330E7C6E200E7D6E4B0E7E6E340E7F6E88
:1040800089D05851080809E1310E7C6E200E7D6EF2
:104090004B0E7E6E330E7F6E7DD05851090809E1BC
:1040A000320E7C6E200E7D6E4B0E7E6E340E7F6E59
:1040B00071D058510A0809E1310E7C6E200E7D6ED8
:1040C0004B0E7E6E340E7F6E65D058510B0812E198
:1040D000EA6A7C0EE96E070E016EF76A000E0001B7
:1040E00070EC00F00A000900F5CFEEFF012EFBD7BF
:1040F00050D0010158510C0812E1EA6A7C0EE96EB9
:10410000070E016EF76A000E00017CEC00F00A0059
:104110000900F5CFEEFF012EFBD73BD0010158512E
:104120000D0812E1EA6A7C0EE96E070E016EF76A6D
:10413000000E000188EC00F00A000900F5CFEEFF48
:10414000012EFBD726D0010158510E0812E1EA6A70
:104150007C0EE96E070E016EF76A000E000194EC0A
:1041600000F00A000900F5CFEEFF012EFBD711D0B9
:104170000101EA6A7C0EE96E0A0E016EF76A000E12
:104180000001A0EC00F00A000900F5CFEEFF012EBF
:10419000FBD701010001E6EF22F00101556B4D5004
:1041A000620802E3566B02D0010E566F036A565145
:1041B0001C0FE96E010E0320EA6EEF5002080DE1BC
:1041C000FD0E2A6FE80E296F036A56511E0FE96E25
:1041D000010E0320EA6EEF6A0DD0030E2A6FE80E7F
:1041E000296F036A56511E0FE96E010E0320EA6E15
:1041F000020EEF6E4D500B0A000141E01E0A40E036
:104200000A0A43E0700A46E0160A49E0FA0A4DE05D
:104210008F0AD8B4ACD01A0AD8B4AAD0360AD8B407
:10422000ACD0500AD8B4AED00A0AD8B4B0D0FE0A86
:10423000D8B4B3D0890AD8B412D11A0AD8B410D1DC
:10424000360AD8B412D1500AD8B414D10A0AD8B454
:1042500016D1FE0AD8B419D18B0AD8B466D1160A81
:10426000D8B464D13A0AD8B466D1500AD8B468D167
:104270000E0AD8B46AD1FA0AD8B46DD1A7D11AD02F
:10428000010E0101556F000115D0020E0101556F9D
:10429000000110D0010E0101566F00010BD0010E7C
:1042A0000101556F566F000105D0020E0101556FD7
:1042B000010E566F010E0101596F000104EC16F05A
:1042C000570E766E650E776E720E786E740E796E7E
:1042D0003A0E7A6E64520CE001012853D8A402D041
:1042E000000106D056C157F155C158F1000159D40B
:1042F00001015651060DF350586B576FD890553544
:10430000036A5725016E5851032201508F0FE96E41
:10431000000E0320EA6EECCF5DF1ED52EFCF5CF1C1
:10432000036A56511E0FE96E010E0320EA6EEFCFAD
:104330005EF1050E5F6F000184EC10F0036A01016D
:1043400056511C0FE96E010E0320EA6EEFCF59F1B2
:10435000036A56511E0FE96E010E0320EA6EEF50FC
:104360000B0F586F5A6F00017AEC11F02FD11AD051
:10437000010E0101556F000115D0020E0101556FAC
:10438000000110D0010E0101566F00010BD0010E8B
:104390000101556F566F000105D0020E0101556FE6
:1043A000010E566F010E0101596F000104EC16F069
:1043B000480E766E790E776E730E786E740E796E87
:1043C0003A0E7A6E64520CE001012853D8A402D050
:1043D000000106D056C157F155C158F10001A1D4D2
:1043E00001015651060DF350586B576FD890553553
:1043F000036A5725016E5851032201509B0FE96E45
:10440000000E0320EA6EECCF5DF1ED52EFCF5CF1D0
:10441000036A56511E0FE96E010E0320EA6EEFCFBC
:104420005EF1050E5F6F000184EC10F0036A01017C
:1044300056511C0FE96E010E0320EA6EEFCF59F1C1
:10444000036A56511E0FE96E010E0320EA6EEF500B
:104450000B0F586F5A6F00017AEC11F0B7D01AD0D9
:10446000010E0101556F000115D0020E0101556FBB
:10447000000110D0010E0101566F00010BD0010E9A
:104480000101556F566F000105D0020E0101556FF5
:10449000010E566F010E0101596F000104EC16F078
:1044A00064520CE001012853D8A402D0000106D0C8
:1044B00056C157F155C158F10001F3D401015651CD
:1044C000030DF350586B576F036A55515725016E12
:1044D000585103220150030FE96E010E0320EA6ECA
:1044E000EF5212E1EA6A760EE96E0C0E016EF76A7F
:1044F000000E000113EC01F00A000900F5CFEEFFF9
:10450000012EFBD711D00101EA6A760EE96E0A0E80
:10451000016EF76A000E000122EC01F00A000900AA
:10452000F5CFEEFF012EFBD751D01AD0010E0101BD
:10453000556F000115D0020E0101556F000110D01A
:10454000010E0101566F00010BD0010E0101556FE4
:10455000566F000105D0020E0101556F010E566F16
:10456000010E0101596F000104EC16F0520E766E37
:10457000650E776E6C0E786E3A0E796E200E7A6E3E
:104580004B0E7B6E64520CE001012853D8A402D07C
:10459000000106D056C157F155C158F10001C0D4F1
:1045A00001015651030DF350586B576F036A555173
:1045B0005725016E585103220150090FE96E010E73
:1045C0000320EA6EEFCF58F100011FD5C0EC11F0C7
:1045D000B3EF23F0F86AD09E078E010E576E656E1A
:1045E0000101276FC150C00B0F09C16E070EB46ED9
:1045F00016D0244019000E4046000400610000005F
:1046000000C1406600184128000F8002040810060F
:104610000C180A14120E161A1C1E06C00000000EFA
:10462000F86E450EF76EF20EF66E0900F550006E4C
:10463000000A13E00900F550016EE8BE05D00F0B2B
:10464000EA6E0900F5CFE9FF01BC090001AC0900E1
:10465000F5CFEEFF004EE9D7F9D7F86AD180000117
:1046600039EF02F094EF02F060EF04F00C0E01015C
:10467000596F0001C2EC07F001015A6B0C0E5B6F21
:10468000000179EC02F04D6A4E6A466A8D518E1136
:1046900002E1010E8C6F0400EA6A660EE96E200EDC
:1046A000006E026A100E016EC9EC02F0EA6A760E24
:1046B000E96E200E006E026A100E016EC9EC02F067
:1046C00080A828D0010E656E56EF0CF08B5318E1D0
:1046D0007CEF0DF001014F51505D02E2010E536F6E
:1046E0004FC150F1475202E1485202E0466A02D0FF
:1046F000200E466E5151521146105311836E000127
:1047000060EC10F08C5303E1FCEC11F002D047EFA9
:1047100012F02CD065520CE0010E576E300E586E20
:10472000596E5A6E5B6E020E5C6E4D6A4E6A656A19
:10473000575214E0A4EC12F05CC055F1020E0101D6
:10474000566F0001CCEC12F001015A6B0F0E5B6F3B
:10475000000179EC02F0F6EC12F008D0F6EC12F061
:1047600076EF18F01AD50101286B000194D70300E9
:0200000400F00A
:100000003132333402016C1D0003E80000000100AE
:100010000000010064009600C800FA012C015E0196
:100020009003E8019001F4038A03F3045C04B00434
:10003000FC0540058407D01D0003E8000000010016
:100040000000010064009600C800FA012C015E0166
:100050009003E8019001F4038A03F3045C04B00404
:10006000FC0540058407D000C800320001012C00C7
:1000700032000501900032000B00C800320001017F
:0D0080002C0032000501900032000B000042
:020000040030CA
:0E00000000C11611008781000FC00FE00F40F5
:00000001FF
;PIC18F4520
;CRC=48A7  CREATED="12-Jan-17 10:06"
